{
  "_format": "hh-sol-artifact-1",
  "contractName": "TimelockController",
  "sourceName": "@openzeppelin/contracts/governance/TimelockController.sol",
  "abi": [
    {
      "inputs": [
        {
          "internalType": "uint256",
          "name": "minDelay",
          "type": "uint256"
        },
        {
          "internalType": "address[]",
          "name": "proposers",
          "type": "address[]"
        },
        {
          "internalType": "address[]",
          "name": "executors",
          "type": "address[]"
        },
        {
          "internalType": "address",
          "name": "admin",
          "type": "address"
        }
      ],
      "stateMutability": "nonpayable",
      "type": "constructor"
    },
    {
      "anonymous": false,
      "inputs": [
        {
          "indexed": true,
          "internalType": "bytes32",
          "name": "id",
          "type": "bytes32"
        },
        {
          "indexed": true,
          "internalType": "uint256",
          "name": "index",
          "type": "uint256"
        },
        {
          "indexed": false,
          "internalType": "address",
          "name": "target",
          "type": "address"
        },
        {
          "indexed": false,
          "internalType": "uint256",
          "name": "value",
          "type": "uint256"
        },
        {
          "indexed": false,
          "internalType": "bytes",
          "name": "data",
          "type": "bytes"
        }
      ],
      "name": "CallExecuted",
      "type": "event"
    },
    {
      "anonymous": false,
      "inputs": [
        {
          "indexed": true,
          "internalType": "bytes32",
          "name": "id",
          "type": "bytes32"
        },
        {
          "indexed": false,
          "internalType": "bytes32",
          "name": "salt",
          "type": "bytes32"
        }
      ],
      "name": "CallSalt",
      "type": "event"
    },
    {
      "anonymous": false,
      "inputs": [
        {
          "indexed": true,
          "internalType": "bytes32",
          "name": "id",
          "type": "bytes32"
        },
        {
          "indexed": true,
          "internalType": "uint256",
          "name": "index",
          "type": "uint256"
        },
        {
          "indexed": false,
          "internalType": "address",
          "name": "target",
          "type": "address"
        },
        {
          "indexed": false,
          "internalType": "uint256",
          "name": "value",
          "type": "uint256"
        },
        {
          "indexed": false,
          "internalType": "bytes",
          "name": "data",
          "type": "bytes"
        },
        {
          "indexed": false,
          "internalType": "bytes32",
          "name": "predecessor",
          "type": "bytes32"
        },
        {
          "indexed": false,
          "internalType": "uint256",
          "name": "delay",
          "type": "uint256"
        }
      ],
      "name": "CallScheduled",
      "type": "event"
    },
    {
      "anonymous": false,
      "inputs": [
        {
          "indexed": true,
          "internalType": "bytes32",
          "name": "id",
          "type": "bytes32"
        }
      ],
      "name": "Cancelled",
      "type": "event"
    },
    {
      "anonymous": false,
      "inputs": [
        {
          "indexed": false,
          "internalType": "uint256",
          "name": "oldDuration",
          "type": "uint256"
        },
        {
          "indexed": false,
          "internalType": "uint256",
          "name": "newDuration",
          "type": "uint256"
        }
      ],
      "name": "MinDelayChange",
      "type": "event"
    },
    {
      "anonymous": false,
      "inputs": [
        {
          "indexed": true,
          "internalType": "bytes32",
          "name": "role",
          "type": "bytes32"
        },
        {
          "indexed": true,
          "internalType": "bytes32",
          "name": "previousAdminRole",
          "type": "bytes32"
        },
        {
          "indexed": true,
          "internalType": "bytes32",
          "name": "newAdminRole",
          "type": "bytes32"
        }
      ],
      "name": "RoleAdminChanged",
      "type": "event"
    },
    {
      "anonymous": false,
      "inputs": [
        {
          "indexed": true,
          "internalType": "bytes32",
          "name": "role",
          "type": "bytes32"
        },
        {
          "indexed": true,
          "internalType": "address",
          "name": "account",
          "type": "address"
        },
        {
          "indexed": true,
          "internalType": "address",
          "name": "sender",
          "type": "address"
        }
      ],
      "name": "RoleGranted",
      "type": "event"
    },
    {
      "anonymous": false,
      "inputs": [
        {
          "indexed": true,
          "internalType": "bytes32",
          "name": "role",
          "type": "bytes32"
        },
        {
          "indexed": true,
          "internalType": "address",
          "name": "account",
          "type": "address"
        },
        {
          "indexed": true,
          "internalType": "address",
          "name": "sender",
          "type": "address"
        }
      ],
      "name": "RoleRevoked",
      "type": "event"
    },
    {
      "inputs": [],
      "name": "CANCELLER_ROLE",
      "outputs": [
        {
          "internalType": "bytes32",
          "name": "",
          "type": "bytes32"
        }
      ],
      "stateMutability": "view",
      "type": "function"
    },
    {
      "inputs": [],
      "name": "DEFAULT_ADMIN_ROLE",
      "outputs": [
        {
          "internalType": "bytes32",
          "name": "",
          "type": "bytes32"
        }
      ],
      "stateMutability": "view",
      "type": "function"
    },
    {
      "inputs": [],
      "name": "EXECUTOR_ROLE",
      "outputs": [
        {
          "internalType": "bytes32",
          "name": "",
          "type": "bytes32"
        }
      ],
      "stateMutability": "view",
      "type": "function"
    },
    {
      "inputs": [],
      "name": "PROPOSER_ROLE",
      "outputs": [
        {
          "internalType": "bytes32",
          "name": "",
          "type": "bytes32"
        }
      ],
      "stateMutability": "view",
      "type": "function"
    },
    {
      "inputs": [],
      "name": "TIMELOCK_ADMIN_ROLE",
      "outputs": [
        {
          "internalType": "bytes32",
          "name": "",
          "type": "bytes32"
        }
      ],
      "stateMutability": "view",
      "type": "function"
    },
    {
      "inputs": [
        {
          "internalType": "bytes32",
          "name": "id",
          "type": "bytes32"
        }
      ],
      "name": "cancel",
      "outputs": [],
      "stateMutability": "nonpayable",
      "type": "function"
    },
    {
      "inputs": [
        {
          "internalType": "address",
          "name": "target",
          "type": "address"
        },
        {
          "internalType": "uint256",
          "name": "value",
          "type": "uint256"
        },
        {
          "internalType": "bytes",
          "name": "payload",
          "type": "bytes"
        },
        {
          "internalType": "bytes32",
          "name": "predecessor",
          "type": "bytes32"
        },
        {
          "internalType": "bytes32",
          "name": "salt",
          "type": "bytes32"
        }
      ],
      "name": "execute",
      "outputs": [],
      "stateMutability": "payable",
      "type": "function"
    },
    {
      "inputs": [
        {
          "internalType": "address[]",
          "name": "targets",
          "type": "address[]"
        },
        {
          "internalType": "uint256[]",
          "name": "values",
          "type": "uint256[]"
        },
        {
          "internalType": "bytes[]",
          "name": "payloads",
          "type": "bytes[]"
        },
        {
          "internalType": "bytes32",
          "name": "predecessor",
          "type": "bytes32"
        },
        {
          "internalType": "bytes32",
          "name": "salt",
          "type": "bytes32"
        }
      ],
      "name": "executeBatch",
      "outputs": [],
      "stateMutability": "payable",
      "type": "function"
    },
    {
      "inputs": [],
      "name": "getMinDelay",
      "outputs": [
        {
          "internalType": "uint256",
          "name": "",
          "type": "uint256"
        }
      ],
      "stateMutability": "view",
      "type": "function"
    },
    {
      "inputs": [
        {
          "internalType": "bytes32",
          "name": "role",
          "type": "bytes32"
        }
      ],
      "name": "getRoleAdmin",
      "outputs": [
        {
          "internalType": "bytes32",
          "name": "",
          "type": "bytes32"
        }
      ],
      "stateMutability": "view",
      "type": "function"
    },
    {
      "inputs": [
        {
          "internalType": "bytes32",
          "name": "id",
          "type": "bytes32"
        }
      ],
      "name": "getTimestamp",
      "outputs": [
        {
          "internalType": "uint256",
          "name": "",
          "type": "uint256"
        }
      ],
      "stateMutability": "view",
      "type": "function"
    },
    {
      "inputs": [
        {
          "internalType": "bytes32",
          "name": "role",
          "type": "bytes32"
        },
        {
          "internalType": "address",
          "name": "account",
          "type": "address"
        }
      ],
      "name": "grantRole",
      "outputs": [],
      "stateMutability": "nonpayable",
      "type": "function"
    },
    {
      "inputs": [
        {
          "internalType": "bytes32",
          "name": "role",
          "type": "bytes32"
        },
        {
          "internalType": "address",
          "name": "account",
          "type": "address"
        }
      ],
      "name": "hasRole",
      "outputs": [
        {
          "internalType": "bool",
          "name": "",
          "type": "bool"
        }
      ],
      "stateMutability": "view",
      "type": "function"
    },
    {
      "inputs": [
        {
          "internalType": "address",
          "name": "target",
          "type": "address"
        },
        {
          "internalType": "uint256",
          "name": "value",
          "type": "uint256"
        },
        {
          "internalType": "bytes",
          "name": "data",
          "type": "bytes"
        },
        {
          "internalType": "bytes32",
          "name": "predecessor",
          "type": "bytes32"
        },
        {
          "internalType": "bytes32",
          "name": "salt",
          "type": "bytes32"
        }
      ],
      "name": "hashOperation",
      "outputs": [
        {
          "internalType": "bytes32",
          "name": "",
          "type": "bytes32"
        }
      ],
      "stateMutability": "pure",
      "type": "function"
    },
    {
      "inputs": [
        {
          "internalType": "address[]",
          "name": "targets",
          "type": "address[]"
        },
        {
          "internalType": "uint256[]",
          "name": "values",
          "type": "uint256[]"
        },
        {
          "internalType": "bytes[]",
          "name": "payloads",
          "type": "bytes[]"
        },
        {
          "internalType": "bytes32",
          "name": "predecessor",
          "type": "bytes32"
        },
        {
          "internalType": "bytes32",
          "name": "salt",
          "type": "bytes32"
        }
      ],
      "name": "hashOperationBatch",
      "outputs": [
        {
          "internalType": "bytes32",
          "name": "",
          "type": "bytes32"
        }
      ],
      "stateMutability": "pure",
      "type": "function"
    },
    {
      "inputs": [
        {
          "internalType": "bytes32",
          "name": "id",
          "type": "bytes32"
        }
      ],
      "name": "isOperation",
      "outputs": [
        {
          "internalType": "bool",
          "name": "",
          "type": "bool"
        }
      ],
      "stateMutability": "view",
      "type": "function"
    },
    {
      "inputs": [
        {
          "internalType": "bytes32",
          "name": "id",
          "type": "bytes32"
        }
      ],
      "name": "isOperationDone",
      "outputs": [
        {
          "internalType": "bool",
          "name": "",
          "type": "bool"
        }
      ],
      "stateMutability": "view",
      "type": "function"
    },
    {
      "inputs": [
        {
          "internalType": "bytes32",
          "name": "id",
          "type": "bytes32"
        }
      ],
      "name": "isOperationPending",
      "outputs": [
        {
          "internalType": "bool",
          "name": "",
          "type": "bool"
        }
      ],
      "stateMutability": "view",
      "type": "function"
    },
    {
      "inputs": [
        {
          "internalType": "bytes32",
          "name": "id",
          "type": "bytes32"
        }
      ],
      "name": "isOperationReady",
      "outputs": [
        {
          "internalType": "bool",
          "name": "",
          "type": "bool"
        }
      ],
      "stateMutability": "view",
      "type": "function"
    },
    {
      "inputs": [
        {
          "internalType": "address",
          "name": "",
          "type": "address"
        },
        {
          "internalType": "address",
          "name": "",
          "type": "address"
        },
        {
          "internalType": "uint256[]",
          "name": "",
          "type": "uint256[]"
        },
        {
          "internalType": "uint256[]",
          "name": "",
          "type": "uint256[]"
        },
        {
          "internalType": "bytes",
          "name": "",
          "type": "bytes"
        }
      ],
      "name": "onERC1155BatchReceived",
      "outputs": [
        {
          "internalType": "bytes4",
          "name": "",
          "type": "bytes4"
        }
      ],
      "stateMutability": "nonpayable",
      "type": "function"
    },
    {
      "inputs": [
        {
          "internalType": "address",
          "name": "",
          "type": "address"
        },
        {
          "internalType": "address",
          "name": "",
          "type": "address"
        },
        {
          "internalType": "uint256",
          "name": "",
          "type": "uint256"
        },
        {
          "internalType": "uint256",
          "name": "",
          "type": "uint256"
        },
        {
          "internalType": "bytes",
          "name": "",
          "type": "bytes"
        }
      ],
      "name": "onERC1155Received",
      "outputs": [
        {
          "internalType": "bytes4",
          "name": "",
          "type": "bytes4"
        }
      ],
      "stateMutability": "nonpayable",
      "type": "function"
    },
    {
      "inputs": [
        {
          "internalType": "address",
          "name": "",
          "type": "address"
        },
        {
          "internalType": "address",
          "name": "",
          "type": "address"
        },
        {
          "internalType": "uint256",
          "name": "",
          "type": "uint256"
        },
        {
          "internalType": "bytes",
          "name": "",
          "type": "bytes"
        }
      ],
      "name": "onERC721Received",
      "outputs": [
        {
          "internalType": "bytes4",
          "name": "",
          "type": "bytes4"
        }
      ],
      "stateMutability": "nonpayable",
      "type": "function"
    },
    {
      "inputs": [
        {
          "internalType": "bytes32",
          "name": "role",
          "type": "bytes32"
        },
        {
          "internalType": "address",
          "name": "account",
          "type": "address"
        }
      ],
      "name": "renounceRole",
      "outputs": [],
      "stateMutability": "nonpayable",
      "type": "function"
    },
    {
      "inputs": [
        {
          "internalType": "bytes32",
          "name": "role",
          "type": "bytes32"
        },
        {
          "internalType": "address",
          "name": "account",
          "type": "address"
        }
      ],
      "name": "revokeRole",
      "outputs": [],
      "stateMutability": "nonpayable",
      "type": "function"
    },
    {
      "inputs": [
        {
          "internalType": "address",
          "name": "target",
          "type": "address"
        },
        {
          "internalType": "uint256",
          "name": "value",
          "type": "uint256"
        },
        {
          "internalType": "bytes",
          "name": "data",
          "type": "bytes"
        },
        {
          "internalType": "bytes32",
          "name": "predecessor",
          "type": "bytes32"
        },
        {
          "internalType": "bytes32",
          "name": "salt",
          "type": "bytes32"
        },
        {
          "internalType": "uint256",
          "name": "delay",
          "type": "uint256"
        }
      ],
      "name": "schedule",
      "outputs": [],
      "stateMutability": "nonpayable",
      "type": "function"
    },
    {
      "inputs": [
        {
          "internalType": "address[]",
          "name": "targets",
          "type": "address[]"
        },
        {
          "internalType": "uint256[]",
          "name": "values",
          "type": "uint256[]"
        },
        {
          "internalType": "bytes[]",
          "name": "payloads",
          "type": "bytes[]"
        },
        {
          "internalType": "bytes32",
          "name": "predecessor",
          "type": "bytes32"
        },
        {
          "internalType": "bytes32",
          "name": "salt",
          "type": "bytes32"
        },
        {
          "internalType": "uint256",
          "name": "delay",
          "type": "uint256"
        }
      ],
      "name": "scheduleBatch",
      "outputs": [],
      "stateMutability": "nonpayable",
      "type": "function"
    },
    {
      "inputs": [
        {
          "internalType": "bytes4",
          "name": "interfaceId",
          "type": "bytes4"
        }
      ],
      "name": "supportsInterface",
      "outputs": [
        {
          "internalType": "bool",
          "name": "",
          "type": "bool"
        }
      ],
      "stateMutability": "view",
      "type": "function"
    },
    {
      "inputs": [
        {
          "internalType": "uint256",
          "name": "newDelay",
          "type": "uint256"
        }
      ],
      "name": "updateDelay",
      "outputs": [],
      "stateMutability": "nonpayable",
      "type": "function"
    },
    {
      "stateMutability": "payable",
      "type": "receive"
    }
  ],
  "bytecode": "0x608060405234801561001057600080fd5b50604051613b52380380613b5283398181016040528101906100329190610732565b6100627f5f58e3a2316349923ce3780f8d587db2d72378aed66a8261c916544fa6846ca58061033f60201b60201c565b6100b27fb09aa5aeb3702cfd50b6b62bc4532604938f21248a27a1d5ca736082b6819cc17f5f58e3a2316349923ce3780f8d587db2d72378aed66a8261c916544fa6846ca561033f60201b60201c565b6101027fd8aa0f3194971a2a116679f7c2090f6939c8d4e01a2a8d7e41d55e5351469e637f5f58e3a2316349923ce3780f8d587db2d72378aed66a8261c916544fa6846ca561033f60201b60201c565b6101527ffd643c72710c63c0180259aba6b2d05451e3591a24e58b62239378085726f7837f5f58e3a2316349923ce3780f8d587db2d72378aed66a8261c916544fa6846ca561033f60201b60201c565b6101827f5f58e3a2316349923ce3780f8d587db2d72378aed66a8261c916544fa6846ca5306103a060201b60201c565b600073ffffffffffffffffffffffffffffffffffffffff168173ffffffffffffffffffffffffffffffffffffffff16146101e7576101e67f5f58e3a2316349923ce3780f8d587db2d72378aed66a8261c916544fa6846ca5826103a060201b60201c565b5b60005b83518110156102925761023d7fb09aa5aeb3702cfd50b6b62bc4532604938f21248a27a1d5ca736082b6819cc185838151811061022a576102296107d1565b5b60200260200101516103a060201b60201c565b6102877ffd643c72710c63c0180259aba6b2d05451e3591a24e58b62239378085726f783858381518110610274576102736107d1565b5b60200260200101516103a060201b60201c565b8060010190506101ea565b5060005b82518110156102f4576102e97fd8aa0f3194971a2a116679f7c2090f6939c8d4e01a2a8d7e41d55e5351469e638483815181106102d6576102d56107d1565b5b60200260200101516103a060201b60201c565b806001019050610296565b50836002819055507f11c24f4ead16507c69ac467fbd5e4eed5fb5c699626d2cc6d66421df253886d560008560405161032e929190610854565b60405180910390a15050505061087d565b6000610350836103b460201b60201c565b905081600080858152602001908152602001600020600101819055508181847fbd79b86ffe0ab8e8776151514217cd7cacd52c909f66475c3af44e129f0b00ff60405160405180910390a4505050565b6103b082826103d360201b60201c565b5050565b6000806000838152602001908152602001600020600101549050919050565b6103e382826104bf60201b60201c565b6104bb57600160008084815260200190815260200160002060000160008373ffffffffffffffffffffffffffffffffffffffff1673ffffffffffffffffffffffffffffffffffffffff16815260200190815260200160002060006101000a81548160ff02191690831515021790555061046061052960201b60201c565b73ffffffffffffffffffffffffffffffffffffffff168173ffffffffffffffffffffffffffffffffffffffff16837f2f8788117e7eff1d82e926ec794901d17c78024a50270940304540a733656f0d60405160405180910390a45b5050565b600080600084815260200190815260200160002060000160008373ffffffffffffffffffffffffffffffffffffffff1673ffffffffffffffffffffffffffffffffffffffff16815260200190815260200160002060009054906101000a900460ff16905092915050565b600033905090565b6000604051905090565b600080fd5b600080fd5b6000819050919050565b61055881610545565b811461056357600080fd5b50565b6000815190506105758161054f565b92915050565b600080fd5b6000601f19601f8301169050919050565b7f4e487b7100000000000000000000000000000000000000000000000000000000600052604160045260246000fd5b6105c982610580565b810181811067ffffffffffffffff821117156105e8576105e7610591565b5b80604052505050565b60006105fb610531565b905061060782826105c0565b919050565b600067ffffffffffffffff82111561062757610626610591565b5b602082029050602081019050919050565b600080fd5b600073ffffffffffffffffffffffffffffffffffffffff82169050919050565b60006106688261063d565b9050919050565b6106788161065d565b811461068357600080fd5b50565b6000815190506106958161066f565b92915050565b60006106ae6106a98461060c565b6105f1565b905080838252602082019050602084028301858111156106d1576106d0610638565b5b835b818110156106fa57806106e68882610686565b8452602084019350506020810190506106d3565b5050509392505050565b600082601f8301126107195761071861057b565b5b815161072984826020860161069b565b91505092915050565b6000806000806080858703121561074c5761074b61053b565b5b600061075a87828801610566565b945050602085015167ffffffffffffffff81111561077b5761077a610540565b5b61078787828801610704565b935050604085015167ffffffffffffffff8111156107a8576107a7610540565b5b6107b487828801610704565b92505060606107c587828801610686565b91505092959194509250565b7f4e487b7100000000000000000000000000000000000000000000000000000000600052603260045260246000fd5b6000819050919050565b6000819050919050565b600061082f61082a61082584610800565b61080a565b610545565b9050919050565b61083f81610814565b82525050565b61084e81610545565b82525050565b60006040820190506108696000830185610836565b6108766020830184610845565b9392505050565b6132c68061088c6000396000f3fe6080604052600436106101bb5760003560e01c80638065657f116100ec578063bc197c811161008a578063d547741f11610064578063d547741f1461068c578063e38335e5146106b5578063f23a6e61146106d1578063f27a0c921461070e576101c2565b8063bc197c81146105e9578063c4d252f514610626578063d45c44351461064f576101c2565b806391d14854116100c657806391d1485414610519578063a217fddf14610556578063b08e51c014610581578063b1c5f427146105ac576101c2565b80638065657f146104885780638f2a0bb0146104c55780638f61f4f5146104ee576101c2565b8063248a9ca31161015957806331d507501161013357806331d50750146103bc57806336568abe146103f9578063584b153e1461042257806364d623531461045f576101c2565b8063248a9ca3146103195780632ab0f529146103565780632f2ff15d14610393576101c2565b80630d3cf6fc116101955780630d3cf6fc14610258578063134008d31461028357806313bc9f201461029f578063150b7a02146102dc576101c2565b806301d5062a146101c757806301ffc9a7146101f057806307bd02651461022d576101c2565b366101c257005b600080fd5b3480156101d357600080fd5b506101ee60048036038101906101e99190611b1a565b610739565b005b3480156101fc57600080fd5b5061021760048036038101906102129190611c21565b610811565b6040516102249190611c69565b60405180910390f35b34801561023957600080fd5b5061024261088b565b60405161024f9190611c93565b60405180910390f35b34801561026457600080fd5b5061026d6108af565b60405161027a9190611c93565b60405180910390f35b61029d60048036038101906102989190611cae565b6108d3565b005b3480156102ab57600080fd5b506102c660048036038101906102c19190611d48565b610990565b6040516102d39190611c69565b60405180910390f35b3480156102e857600080fd5b5061030360048036038101906102fe9190611eb6565b6109b6565b6040516103109190611f48565b60405180910390f35b34801561032557600080fd5b50610340600480360381019061033b9190611d48565b6109ca565b60405161034d9190611c93565b60405180910390f35b34801561036257600080fd5b5061037d60048036038101906103789190611d48565b6109e9565b60405161038a9190611c69565b60405180910390f35b34801561039f57600080fd5b506103ba60048036038101906103b59190611f63565b6109fe565b005b3480156103c857600080fd5b506103e360048036038101906103de9190611d48565b610a1f565b6040516103f09190611c69565b60405180910390f35b34801561040557600080fd5b50610420600480360381019061041b9190611f63565b610a33565b005b34801561042e57600080fd5b5061044960048036038101906104449190611d48565b610ab6565b6040516104569190611c69565b60405180910390f35b34801561046b57600080fd5b5061048660048036038101906104819190611fa3565b610acb565b005b34801561049457600080fd5b506104af60048036038101906104aa9190611cae565b610b7e565b6040516104bc9190611c93565b60405180910390f35b3480156104d157600080fd5b506104ec60048036038101906104e791906120d2565b610bbd565b005b3480156104fa57600080fd5b50610503610da5565b6040516105109190611c93565b60405180910390f35b34801561052557600080fd5b50610540600480360381019061053b9190611f63565b610dc9565b60405161054d9190611c69565b60405180910390f35b34801561056257600080fd5b5061056b610e33565b6040516105789190611c93565b60405180910390f35b34801561058d57600080fd5b50610596610e3a565b6040516105a39190611c93565b60405180910390f35b3480156105b857600080fd5b506105d360048036038101906105ce91906121c1565b610e5e565b6040516105e09190611c93565b60405180910390f35b3480156105f557600080fd5b50610610600480360381019061060b9190612360565b610ea3565b60405161061d9190611f48565b60405180910390f35b34801561063257600080fd5b5061064d60048036038101906106489190611d48565b610eb8565b005b34801561065b57600080fd5b5061067660048036038101906106719190611d48565b610f72565b604051610683919061243e565b60405180910390f35b34801561069857600080fd5b506106b360048036038101906106ae9190611f63565b610f8f565b005b6106cf60048036038101906106ca91906121c1565b610fb0565b005b3480156106dd57600080fd5b506106f860048036038101906106f39190612459565b611194565b6040516107059190611f48565b60405180910390f35b34801561071a57600080fd5b506107236111a9565b604051610730919061243e565b60405180910390f35b7fb09aa5aeb3702cfd50b6b62bc4532604938f21248a27a1d5ca736082b6819cc1610763816111b3565b6000610773898989898989610b7e565b905061077f81846111c7565b6000817f4cf4410cc57040e44862ef0f45f3dd5a5e02db8eb8add648d4b0e236f1d07dca8b8b8b8b8b8a6040516107bb9695949392919061253d565b60405180910390a36000801b841461080657807f20fda5fd27a1ea7bf5b9567f143ac5470bb059374a27e8f67cb44f946f6d0387856040516107fd9190611c93565b60405180910390a25b505050505050505050565b60007f4e2312e0000000000000000000000000000000000000000000000000000000007bffffffffffffffffffffffffffffffffffffffffffffffffffffffff1916827bffffffffffffffffffffffffffffffffffffffffffffffffffffffff19161480610884575061088382611281565b5b9050919050565b7fd8aa0f3194971a2a116679f7c2090f6939c8d4e01a2a8d7e41d55e5351469e6381565b7f5f58e3a2316349923ce3780f8d587db2d72378aed66a8261c916544fa6846ca581565b7fd8aa0f3194971a2a116679f7c2090f6939c8d4e01a2a8d7e41d55e5351469e636108ff816000610dc9565b610915576109148161090f6112fb565b611303565b5b6000610925888888888888610b7e565b90506109318185611388565b61093d88888888611429565b6000817fc2617efa69bab66782fa219543714338489c4e9e178271560a91b82c3f612b588a8a8a8a6040516109759493929190612599565b60405180910390a3610986816114e0565b5050505050505050565b60008061099c83610f72565b90506001811180156109ae5750428111155b915050919050565b600063150b7a0260e01b9050949350505050565b6000806000838152602001908152602001600020600101549050919050565b600060016109f683610f72565b149050919050565b610a07826109ca565b610a10816111b3565b610a1a8383611543565b505050565b600080610a2b83610f72565b119050919050565b610a3b6112fb565b73ffffffffffffffffffffffffffffffffffffffff168173ffffffffffffffffffffffffffffffffffffffff1614610aa8576040517f08c379a0000000000000000000000000000000000000000000000000000000008152600401610a9f9061265c565b60405180910390fd5b610ab28282611623565b5050565b60006001610ac383610f72565b119050919050565b3073ffffffffffffffffffffffffffffffffffffffff163373ffffffffffffffffffffffffffffffffffffffff1614610b39576040517f08c379a0000000000000000000000000000000000000000000000000000000008152600401610b30906126ee565b60405180910390fd5b7f11c24f4ead16507c69ac467fbd5e4eed5fb5c699626d2cc6d66421df253886d560025482604051610b6c92919061270e565b60405180910390a18060028190555050565b6000868686868686604051602001610b9b96959493929190612737565b6040516020818303038152906040528051906020012090509695505050505050565b7fb09aa5aeb3702cfd50b6b62bc4532604938f21248a27a1d5ca736082b6819cc1610be7816111b3565b878790508a8a905014610c2f576040517f08c379a0000000000000000000000000000000000000000000000000000000008152600401610c2690612805565b60405180910390fd5b858590508a8a905014610c77576040517f08c379a0000000000000000000000000000000000000000000000000000000008152600401610c6e90612805565b60405180910390fd5b6000610c898b8b8b8b8b8b8b8b610e5e565b9050610c9581846111c7565b60005b8b8b9050811015610d545780827f4cf4410cc57040e44862ef0f45f3dd5a5e02db8eb8add648d4b0e236f1d07dca8e8e85818110610cd957610cd8612825565b5b9050602002016020810190610cee9190612854565b8d8d86818110610d0157610d00612825565b5b905060200201358c8c87818110610d1b57610d1a612825565b5b9050602002810190610d2d9190612890565b8c8b604051610d419695949392919061253d565b60405180910390a3806001019050610c98565b506000801b8414610d9857807f20fda5fd27a1ea7bf5b9567f143ac5470bb059374a27e8f67cb44f946f6d038785604051610d8f9190611c93565b60405180910390a25b5050505050505050505050565b7fb09aa5aeb3702cfd50b6b62bc4532604938f21248a27a1d5ca736082b6819cc181565b600080600084815260200190815260200160002060000160008373ffffffffffffffffffffffffffffffffffffffff1673ffffffffffffffffffffffffffffffffffffffff16815260200190815260200160002060009054906101000a900460ff16905092915050565b6000801b81565b7ffd643c72710c63c0180259aba6b2d05451e3591a24e58b62239378085726f78381565b60008888888888888888604051602001610e7f989796959493929190612b95565b60405160208183030381529060405280519060200120905098975050505050505050565b600063bc197c8160e01b905095945050505050565b7ffd643c72710c63c0180259aba6b2d05451e3591a24e58b62239378085726f783610ee2816111b3565b610eeb82610ab6565b610f2a576040517f08c379a0000000000000000000000000000000000000000000000000000000008152600401610f2190612c75565b60405180910390fd5b6001600083815260200190815260200160002060009055817fbaa1eb22f2a492ba1a5fea61b8df4d27c6c8b5f3971e63bb58fa14ff72eedb7060405160405180910390a25050565b600060016000838152602001908152602001600020549050919050565b610f98826109ca565b610fa1816111b3565b610fab8383611623565b505050565b7fd8aa0f3194971a2a116679f7c2090f6939c8d4e01a2a8d7e41d55e5351469e63610fdc816000610dc9565b610ff257610ff181610fec6112fb565b611303565b5b86869050898990501461103a576040517f08c379a000000000000000000000000000000000000000000000000000000000815260040161103190612805565b60405180910390fd5b848490508989905014611082576040517f08c379a000000000000000000000000000000000000000000000000000000000815260040161107990612805565b60405180910390fd5b60006110948a8a8a8a8a8a8a8a610e5e565b90506110a08185611388565b60005b8a8a905081101561117e5760008b8b838181106110c3576110c2612825565b5b90506020020160208101906110d89190612854565b905060008a8a848181106110ef576110ee612825565b5b9050602002013590503660008a8a8681811061110e5761110d612825565b5b90506020028101906111209190612890565b9150915061113084848484611429565b84867fc2617efa69bab66782fa219543714338489c4e9e178271560a91b82c3f612b58868686866040516111679493929190612599565b60405180910390a3505050508060010190506110a3565b50611188816114e0565b50505050505050505050565b600063f23a6e6160e01b905095945050505050565b6000600254905090565b6111c4816111bf6112fb565b611303565b50565b6111d082610a1f565b15611210576040517f08c379a000000000000000000000000000000000000000000000000000000000815260040161120790612d07565b60405180910390fd5b6112186111a9565b81101561125a576040517f08c379a000000000000000000000000000000000000000000000000000000000815260040161125190612d99565b60405180910390fd5b80426112669190612de8565b60016000848152602001908152602001600020819055505050565b60007f7965db0b000000000000000000000000000000000000000000000000000000007bffffffffffffffffffffffffffffffffffffffffffffffffffffffff1916827bffffffffffffffffffffffffffffffffffffffffffffffffffffffff191614806112f457506112f382611704565b5b9050919050565b600033905090565b61130d8282610dc9565b6113845761131a8161176e565b6113288360001c602061179b565b604051602001611339929190612f25565b6040516020818303038152906040526040517f08c379a000000000000000000000000000000000000000000000000000000000815260040161137b9190612f98565b60405180910390fd5b5050565b61139182610990565b6113d0576040517f08c379a00000000000000000000000000000000000000000000000000000000081526004016113c79061302c565b60405180910390fd5b6000801b8114806113e657506113e5816109e9565b5b611425576040517f08c379a000000000000000000000000000000000000000000000000000000000815260040161141c906130be565b60405180910390fd5b5050565b60008473ffffffffffffffffffffffffffffffffffffffff1684848460405161145392919061310e565b60006040518083038185875af1925050503d8060008114611490576040519150601f19603f3d011682016040523d82523d6000602084013e611495565b606091505b50509050806114d9576040517f08c379a00000000000000000000000000000000000000000000000000000000081526004016114d090613199565b60405180910390fd5b5050505050565b6114e981610990565b611528576040517f08c379a000000000000000000000000000000000000000000000000000000000815260040161151f9061302c565b60405180910390fd5b60018060008381526020019081526020016000208190555050565b61154d8282610dc9565b61161f57600160008084815260200190815260200160002060000160008373ffffffffffffffffffffffffffffffffffffffff1673ffffffffffffffffffffffffffffffffffffffff16815260200190815260200160002060006101000a81548160ff0219169083151502179055506115c46112fb565b73ffffffffffffffffffffffffffffffffffffffff168173ffffffffffffffffffffffffffffffffffffffff16837f2f8788117e7eff1d82e926ec794901d17c78024a50270940304540a733656f0d60405160405180910390a45b5050565b61162d8282610dc9565b1561170057600080600084815260200190815260200160002060000160008373ffffffffffffffffffffffffffffffffffffffff1673ffffffffffffffffffffffffffffffffffffffff16815260200190815260200160002060006101000a81548160ff0219169083151502179055506116a56112fb565b73ffffffffffffffffffffffffffffffffffffffff168173ffffffffffffffffffffffffffffffffffffffff16837ff6391f5c32d9c69d2a47ea670b442974b53935d1edc7fd64eb21e047a839171b60405160405180910390a45b5050565b60007f01ffc9a7000000000000000000000000000000000000000000000000000000007bffffffffffffffffffffffffffffffffffffffffffffffffffffffff1916827bffffffffffffffffffffffffffffffffffffffffffffffffffffffff1916149050919050565b60606117948273ffffffffffffffffffffffffffffffffffffffff16601460ff1661179b565b9050919050565b6060600060028360026117ae91906131b9565b6117b89190612de8565b67ffffffffffffffff8111156117d1576117d0611d8b565b5b6040519080825280601f01601f1916602001820160405280156118035781602001600182028036833780820191505090505b5090507f30000000000000000000000000000000000000000000000000000000000000008160008151811061183b5761183a612825565b5b60200101907effffffffffffffffffffffffffffffffffffffffffffffffffffffffffffff1916908160001a9053507f78000000000000000000000000000000000000000000000000000000000000008160018151811061189f5761189e612825565b5b60200101907effffffffffffffffffffffffffffffffffffffffffffffffffffffffffffff1916908160001a905350600060018460026118df91906131b9565b6118e99190612de8565b90505b6001811115611989577f3031323334353637383961626364656600000000000000000000000000000000600f86166010811061192b5761192a612825565b5b1a60f81b82828151811061194257611941612825565b5b60200101907effffffffffffffffffffffffffffffffffffffffffffffffffffffffffffff1916908160001a905350600485901c945080611982906131fb565b90506118ec565b50600084146119cd576040517f08c379a00000000000000000000000000000000000000000000000000000000081526004016119c490613270565b60405180910390fd5b8091505092915050565b6000604051905090565b600080fd5b600080fd5b600073ffffffffffffffffffffffffffffffffffffffff82169050919050565b6000611a16826119eb565b9050919050565b611a2681611a0b565b8114611a3157600080fd5b50565b600081359050611a4381611a1d565b92915050565b6000819050919050565b611a5c81611a49565b8114611a6757600080fd5b50565b600081359050611a7981611a53565b92915050565b600080fd5b600080fd5b600080fd5b60008083601f840112611aa457611aa3611a7f565b5b8235905067ffffffffffffffff811115611ac157611ac0611a84565b5b602083019150836001820283011115611add57611adc611a89565b5b9250929050565b6000819050919050565b611af781611ae4565b8114611b0257600080fd5b50565b600081359050611b1481611aee565b92915050565b600080600080600080600060c0888a031215611b3957611b386119e1565b5b6000611b478a828b01611a34565b9750506020611b588a828b01611a6a565b965050604088013567ffffffffffffffff811115611b7957611b786119e6565b5b611b858a828b01611a8e565b95509550506060611b988a828b01611b05565b9350506080611ba98a828b01611b05565b92505060a0611bba8a828b01611a6a565b91505092959891949750929550565b60007fffffffff0000000000000000000000000000000000000000000000000000000082169050919050565b611bfe81611bc9565b8114611c0957600080fd5b50565b600081359050611c1b81611bf5565b92915050565b600060208284031215611c3757611c366119e1565b5b6000611c4584828501611c0c565b91505092915050565b60008115159050919050565b611c6381611c4e565b82525050565b6000602082019050611c7e6000830184611c5a565b92915050565b611c8d81611ae4565b82525050565b6000602082019050611ca86000830184611c84565b92915050565b60008060008060008060a08789031215611ccb57611cca6119e1565b5b6000611cd989828a01611a34565b9650506020611cea89828a01611a6a565b955050604087013567ffffffffffffffff811115611d0b57611d0a6119e6565b5b611d1789828a01611a8e565b94509450506060611d2a89828a01611b05565b9250506080611d3b89828a01611b05565b9150509295509295509295565b600060208284031215611d5e57611d5d6119e1565b5b6000611d6c84828501611b05565b91505092915050565b600080fd5b6000601f19601f8301169050919050565b7f4e487b7100000000000000000000000000000000000000000000000000000000600052604160045260246000fd5b611dc382611d7a565b810181811067ffffffffffffffff82111715611de257611de1611d8b565b5b80604052505050565b6000611df56119d7565b9050611e018282611dba565b919050565b600067ffffffffffffffff821115611e2157611e20611d8b565b5b611e2a82611d7a565b9050602081019050919050565b82818337600083830152505050565b6000611e59611e5484611e06565b611deb565b905082815260208101848484011115611e7557611e74611d75565b5b611e80848285611e37565b509392505050565b600082601f830112611e9d57611e9c611a7f565b5b8135611ead848260208601611e46565b91505092915050565b60008060008060808587031215611ed057611ecf6119e1565b5b6000611ede87828801611a34565b9450506020611eef87828801611a34565b9350506040611f0087828801611a6a565b925050606085013567ffffffffffffffff811115611f2157611f206119e6565b5b611f2d87828801611e88565b91505092959194509250565b611f4281611bc9565b82525050565b6000602082019050611f5d6000830184611f39565b92915050565b60008060408385031215611f7a57611f796119e1565b5b6000611f8885828601611b05565b9250506020611f9985828601611a34565b9150509250929050565b600060208284031215611fb957611fb86119e1565b5b6000611fc784828501611a6a565b91505092915050565b60008083601f840112611fe657611fe5611a7f565b5b8235905067ffffffffffffffff81111561200357612002611a84565b5b60208301915083602082028301111561201f5761201e611a89565b5b9250929050565b60008083601f84011261203c5761203b611a7f565b5b8235905067ffffffffffffffff81111561205957612058611a84565b5b60208301915083602082028301111561207557612074611a89565b5b9250929050565b60008083601f84011261209257612091611a7f565b5b8235905067ffffffffffffffff8111156120af576120ae611a84565b5b6020830191508360208202830111156120cb576120ca611a89565b5b9250929050565b600080600080600080600080600060c08a8c0312156120f4576120f36119e1565b5b60008a013567ffffffffffffffff811115612112576121116119e6565b5b61211e8c828d01611fd0565b995099505060208a013567ffffffffffffffff811115612141576121406119e6565b5b61214d8c828d01612026565b975097505060408a013567ffffffffffffffff8111156121705761216f6119e6565b5b61217c8c828d0161207c565b9550955050606061218f8c828d01611b05565b93505060806121a08c828d01611b05565b92505060a06121b18c828d01611a6a565b9150509295985092959850929598565b60008060008060008060008060a0898b0312156121e1576121e06119e1565b5b600089013567ffffffffffffffff8111156121ff576121fe6119e6565b5b61220b8b828c01611fd0565b9850985050602089013567ffffffffffffffff81111561222e5761222d6119e6565b5b61223a8b828c01612026565b9650965050604089013567ffffffffffffffff81111561225d5761225c6119e6565b5b6122698b828c0161207c565b9450945050606061227c8b828c01611b05565b925050608061228d8b828c01611b05565b9150509295985092959890939650565b600067ffffffffffffffff8211156122b8576122b7611d8b565b5b602082029050602081019050919050565b60006122dc6122d78461229d565b611deb565b905080838252602082019050602084028301858111156122ff576122fe611a89565b5b835b8181101561232857806123148882611a6a565b845260208401935050602081019050612301565b5050509392505050565b600082601f83011261234757612346611a7f565b5b81356123578482602086016122c9565b91505092915050565b600080600080600060a0868803121561237c5761237b6119e1565b5b600061238a88828901611a34565b955050602061239b88828901611a34565b945050604086013567ffffffffffffffff8111156123bc576123bb6119e6565b5b6123c888828901612332565b935050606086013567ffffffffffffffff8111156123e9576123e86119e6565b5b6123f588828901612332565b925050608086013567ffffffffffffffff811115612416576124156119e6565b5b61242288828901611e88565b9150509295509295909350565b61243881611a49565b82525050565b6000602082019050612453600083018461242f565b92915050565b600080600080600060a08688031215612475576124746119e1565b5b600061248388828901611a34565b955050602061249488828901611a34565b94505060406124a588828901611a6a565b93505060606124b688828901611a6a565b925050608086013567ffffffffffffffff8111156124d7576124d66119e6565b5b6124e388828901611e88565b9150509295509295909350565b6124f981611a0b565b82525050565b600082825260208201905092915050565b600061251c83856124ff565b9350612529838584611e37565b61253283611d7a565b840190509392505050565b600060a08201905061255260008301896124f0565b61255f602083018861242f565b8181036040830152612572818688612510565b90506125816060830185611c84565b61258e608083018461242f565b979650505050505050565b60006060820190506125ae60008301876124f0565b6125bb602083018661242f565b81810360408301526125ce818486612510565b905095945050505050565b600082825260208201905092915050565b7f416363657373436f6e74726f6c3a2063616e206f6e6c792072656e6f756e636560008201527f20726f6c657320666f722073656c660000000000000000000000000000000000602082015250565b6000612646602f836125d9565b9150612651826125ea565b604082019050919050565b6000602082019050818103600083015261267581612639565b9050919050565b7f54696d656c6f636b436f6e74726f6c6c65723a2063616c6c6572206d7573742060008201527f62652074696d656c6f636b000000000000000000000000000000000000000000602082015250565b60006126d8602b836125d9565b91506126e38261267c565b604082019050919050565b60006020820190508181036000830152612707816126cb565b9050919050565b6000604082019050612723600083018561242f565b612730602083018461242f565b9392505050565b600060a08201905061274c60008301896124f0565b612759602083018861242f565b818103604083015261276c818688612510565b905061277b6060830185611c84565b6127886080830184611c84565b979650505050505050565b7f54696d656c6f636b436f6e74726f6c6c65723a206c656e677468206d69736d6160008201527f7463680000000000000000000000000000000000000000000000000000000000602082015250565b60006127ef6023836125d9565b91506127fa82612793565b604082019050919050565b6000602082019050818103600083015261281e816127e2565b9050919050565b7f4e487b7100000000000000000000000000000000000000000000000000000000600052603260045260246000fd5b60006020828403121561286a576128696119e1565b5b600061287884828501611a34565b91505092915050565b600080fd5b600080fd5b600080fd5b600080833560016020038436030381126128ad576128ac612881565b5b80840192508235915067ffffffffffffffff8211156128cf576128ce612886565b5b6020830192506001820236038313156128eb576128ea61288b565b5b509250929050565b600082825260208201905092915050565b6000819050919050565b61291781611a0b565b82525050565b6000612929838361290e565b60208301905092915050565b60006129446020840184611a34565b905092915050565b6000602082019050919050565b600061296583856128f3565b935061297082612904565b8060005b858110156129a9576129868284612935565b612990888261291d565b975061299b8361294c565b925050600181019050612974565b5085925050509392505050565b600082825260208201905092915050565b600080fd5b82818337505050565b60006129e183856129b6565b93507f07ffffffffffffffffffffffffffffffffffffffffffffffffffffffffffffff831115612a1457612a136129c7565b5b602083029250612a258385846129cc565b82840190509392505050565b600082825260208201905092915050565b6000819050919050565b600082825260208201905092915050565b6000612a698385612a4c565b9350612a76838584611e37565b612a7f83611d7a565b840190509392505050565b6000612a97848484612a5d565b90509392505050565b600080fd5b600080fd5b600080fd5b60008083356001602003843603038112612acc57612acb612aaa565b5b83810192508235915060208301925067ffffffffffffffff821115612af457612af3612aa0565b5b600182023603831315612b0a57612b09612aa5565b5b509250929050565b6000602082019050919050565b6000612b2b8385612a31565b935083602084028501612b3d84612a42565b8060005b87811015612b83578484038952612b588284612aaf565b612b63868284612a8a565b9550612b6e84612b12565b935060208b019a505050600181019050612b41565b50829750879450505050509392505050565b600060a0820190508181036000830152612bb0818a8c612959565b90508181036020830152612bc581888a6129d5565b90508181036040830152612bda818688612b1f565b9050612be96060830185611c84565b612bf66080830184611c84565b9998505050505050505050565b7f54696d656c6f636b436f6e74726f6c6c65723a206f7065726174696f6e20636160008201527f6e6e6f742062652063616e63656c6c6564000000000000000000000000000000602082015250565b6000612c5f6031836125d9565b9150612c6a82612c03565b604082019050919050565b60006020820190508181036000830152612c8e81612c52565b9050919050565b7f54696d656c6f636b436f6e74726f6c6c65723a206f7065726174696f6e20616c60008201527f7265616479207363686564756c65640000000000000000000000000000000000602082015250565b6000612cf1602f836125d9565b9150612cfc82612c95565b604082019050919050565b60006020820190508181036000830152612d2081612ce4565b9050919050565b7f54696d656c6f636b436f6e74726f6c6c65723a20696e73756666696369656e7460008201527f2064656c61790000000000000000000000000000000000000000000000000000602082015250565b6000612d836026836125d9565b9150612d8e82612d27565b604082019050919050565b60006020820190508181036000830152612db281612d76565b9050919050565b7f4e487b7100000000000000000000000000000000000000000000000000000000600052601160045260246000fd5b6000612df382611a49565b9150612dfe83611a49565b9250828201905080821115612e1657612e15612db9565b5b92915050565b600081905092915050565b7f416363657373436f6e74726f6c3a206163636f756e7420000000000000000000600082015250565b6000612e5d601783612e1c565b9150612e6882612e27565b601782019050919050565b600081519050919050565b60005b83811015612e9c578082015181840152602081019050612e81565b60008484015250505050565b6000612eb382612e73565b612ebd8185612e1c565b9350612ecd818560208601612e7e565b80840191505092915050565b7f206973206d697373696e6720726f6c6520000000000000000000000000000000600082015250565b6000612f0f601183612e1c565b9150612f1a82612ed9565b601182019050919050565b6000612f3082612e50565b9150612f3c8285612ea8565b9150612f4782612f02565b9150612f538284612ea8565b91508190509392505050565b6000612f6a82612e73565b612f7481856125d9565b9350612f84818560208601612e7e565b612f8d81611d7a565b840191505092915050565b60006020820190508181036000830152612fb28184612f5f565b905092915050565b7f54696d656c6f636b436f6e74726f6c6c65723a206f7065726174696f6e20697360008201527f206e6f7420726561647900000000000000000000000000000000000000000000602082015250565b6000613016602a836125d9565b915061302182612fba565b604082019050919050565b6000602082019050818103600083015261304581613009565b9050919050565b7f54696d656c6f636b436f6e74726f6c6c65723a206d697373696e67206465706560008201527f6e64656e63790000000000000000000000000000000000000000000000000000602082015250565b60006130a86026836125d9565b91506130b38261304c565b604082019050919050565b600060208201905081810360008301526130d78161309b565b9050919050565b600081905092915050565b60006130f583856130de565b9350613102838584611e37565b82840190509392505050565b600061311b8284866130e9565b91508190509392505050565b7f54696d656c6f636b436f6e74726f6c6c65723a20756e6465726c79696e67207460008201527f72616e73616374696f6e20726576657274656400000000000000000000000000602082015250565b60006131836033836125d9565b915061318e82613127565b604082019050919050565b600060208201905081810360008301526131b281613176565b9050919050565b60006131c482611a49565b91506131cf83611a49565b92508282026131dd81611a49565b915082820484148315176131f4576131f3612db9565b5b5092915050565b600061320682611a49565b91506000820361321957613218612db9565b5b600182039050919050565b7f537472696e67733a20686578206c656e67746820696e73756666696369656e74600082015250565b600061325a6020836125d9565b915061326582613224565b602082019050919050565b600060208201905081810360008301526132898161324d565b905091905056fea264697066735822122055481425f75814ced781ce080f31eb4b9a213a0118ae5b306d5e78ee971290ca64736f6c634300081e0033",
  "linkReferences": {},
  "deployedLinkReferences": {}
}